{
  "contractName": "ERC721Token",
  "abi": [
    {
      "constant": true,
      "inputs": [
        {
          "name": "_interfaceId",
          "type": "bytes4"
        }
      ],
      "name": "supportsInterface",
      "outputs": [
        {
          "name": "",
          "type": "bool"
        }
      ],
      "payable": false,
      "stateMutability": "view",
      "type": "function"
    },
    {
      "constant": true,
      "inputs": [
        {
          "name": "_tokenId",
          "type": "uint256"
        }
      ],
      "name": "getApproved",
      "outputs": [
        {
          "name": "",
          "type": "address"
        }
      ],
      "payable": false,
      "stateMutability": "view",
      "type": "function"
    },
    {
      "constant": false,
      "inputs": [
        {
          "name": "_to",
          "type": "address"
        },
        {
          "name": "_tokenId",
          "type": "uint256"
        }
      ],
      "name": "approve",
      "outputs": [],
      "payable": false,
      "stateMutability": "nonpayable",
      "type": "function"
    },
    {
      "constant": true,
      "inputs": [],
      "name": "InterfaceId_ERC165",
      "outputs": [
        {
          "name": "",
          "type": "bytes4"
        }
      ],
      "payable": false,
      "stateMutability": "view",
      "type": "function"
    },
    {
      "constant": false,
      "inputs": [
        {
          "name": "_from",
          "type": "address"
        },
        {
          "name": "_to",
          "type": "address"
        },
        {
          "name": "_tokenId",
          "type": "uint256"
        }
      ],
      "name": "transferFrom",
      "outputs": [],
      "payable": false,
      "stateMutability": "nonpayable",
      "type": "function"
    },
    {
      "constant": false,
      "inputs": [
        {
          "name": "_from",
          "type": "address"
        },
        {
          "name": "_to",
          "type": "address"
        },
        {
          "name": "_tokenId",
          "type": "uint256"
        }
      ],
      "name": "safeTransferFrom",
      "outputs": [],
      "payable": false,
      "stateMutability": "nonpayable",
      "type": "function"
    },
    {
      "constant": true,
      "inputs": [
        {
          "name": "_tokenId",
          "type": "uint256"
        }
      ],
      "name": "exists",
      "outputs": [
        {
          "name": "",
          "type": "bool"
        }
      ],
      "payable": false,
      "stateMutability": "view",
      "type": "function"
    },
    {
      "constant": true,
      "inputs": [
        {
          "name": "_tokenId",
          "type": "uint256"
        }
      ],
      "name": "ownerOf",
      "outputs": [
        {
          "name": "",
          "type": "address"
        }
      ],
      "payable": false,
      "stateMutability": "view",
      "type": "function"
    },
    {
      "constant": true,
      "inputs": [
        {
          "name": "_owner",
          "type": "address"
        }
      ],
      "name": "balanceOf",
      "outputs": [
        {
          "name": "",
          "type": "uint256"
        }
      ],
      "payable": false,
      "stateMutability": "view",
      "type": "function"
    },
    {
      "constant": false,
      "inputs": [
        {
          "name": "_to",
          "type": "address"
        },
        {
          "name": "_approved",
          "type": "bool"
        }
      ],
      "name": "setApprovalForAll",
      "outputs": [],
      "payable": false,
      "stateMutability": "nonpayable",
      "type": "function"
    },
    {
      "constant": false,
      "inputs": [
        {
          "name": "_from",
          "type": "address"
        },
        {
          "name": "_to",
          "type": "address"
        },
        {
          "name": "_tokenId",
          "type": "uint256"
        },
        {
          "name": "_data",
          "type": "bytes"
        }
      ],
      "name": "safeTransferFrom",
      "outputs": [],
      "payable": false,
      "stateMutability": "nonpayable",
      "type": "function"
    },
    {
      "constant": true,
      "inputs": [
        {
          "name": "_owner",
          "type": "address"
        },
        {
          "name": "_operator",
          "type": "address"
        }
      ],
      "name": "isApprovedForAll",
      "outputs": [
        {
          "name": "",
          "type": "bool"
        }
      ],
      "payable": false,
      "stateMutability": "view",
      "type": "function"
    },
    {
      "inputs": [
        {
          "name": "_name",
          "type": "string"
        },
        {
          "name": "_symbol",
          "type": "string"
        }
      ],
      "payable": false,
      "stateMutability": "nonpayable",
      "type": "constructor"
    },
    {
      "anonymous": false,
      "inputs": [
        {
          "indexed": true,
          "name": "_from",
          "type": "address"
        },
        {
          "indexed": true,
          "name": "_to",
          "type": "address"
        },
        {
          "indexed": true,
          "name": "_tokenId",
          "type": "uint256"
        }
      ],
      "name": "Transfer",
      "type": "event"
    },
    {
      "anonymous": false,
      "inputs": [
        {
          "indexed": true,
          "name": "_owner",
          "type": "address"
        },
        {
          "indexed": true,
          "name": "_approved",
          "type": "address"
        },
        {
          "indexed": true,
          "name": "_tokenId",
          "type": "uint256"
        }
      ],
      "name": "Approval",
      "type": "event"
    },
    {
      "anonymous": false,
      "inputs": [
        {
          "indexed": true,
          "name": "_owner",
          "type": "address"
        },
        {
          "indexed": true,
          "name": "_operator",
          "type": "address"
        },
        {
          "indexed": false,
          "name": "_approved",
          "type": "bool"
        }
      ],
      "name": "ApprovalForAll",
      "type": "event"
    },
    {
      "constant": true,
      "inputs": [],
      "name": "name",
      "outputs": [
        {
          "name": "",
          "type": "string"
        }
      ],
      "payable": false,
      "stateMutability": "view",
      "type": "function"
    },
    {
      "constant": true,
      "inputs": [],
      "name": "symbol",
      "outputs": [
        {
          "name": "",
          "type": "string"
        }
      ],
      "payable": false,
      "stateMutability": "view",
      "type": "function"
    },
    {
      "constant": true,
      "inputs": [
        {
          "name": "_tokenId",
          "type": "uint256"
        }
      ],
      "name": "tokenURI",
      "outputs": [
        {
          "name": "",
          "type": "string"
        }
      ],
      "payable": false,
      "stateMutability": "view",
      "type": "function"
    },
    {
      "constant": true,
      "inputs": [
        {
          "name": "_owner",
          "type": "address"
        },
        {
          "name": "_index",
          "type": "uint256"
        }
      ],
      "name": "tokenOfOwnerByIndex",
      "outputs": [
        {
          "name": "",
          "type": "uint256"
        }
      ],
      "payable": false,
      "stateMutability": "view",
      "type": "function"
    },
    {
      "constant": true,
      "inputs": [],
      "name": "totalSupply",
      "outputs": [
        {
          "name": "",
          "type": "uint256"
        }
      ],
      "payable": false,
      "stateMutability": "view",
      "type": "function"
    },
    {
      "constant": true,
      "inputs": [
        {
          "name": "_index",
          "type": "uint256"
        }
      ],
      "name": "tokenByIndex",
      "outputs": [
        {
          "name": "",
          "type": "uint256"
        }
      ],
      "payable": false,
      "stateMutability": "view",
      "type": "function"
    }
  ],
  "bytecode": "0x60806040523480156200001157600080fd5b506040516200233838038062002338833981018060405281019080805182019291906020018051820192919050505060006200007f6301ffc9a77c010000000000000000000000000000000000000000000000000000000002620001e2640100000000026401000000009004565b620000bc6380ac58cd7c010000000000000000000000000000000000000000000000000000000002620001e2640100000000026401000000009004565b620000f9634f558e797c010000000000000000000000000000000000000000000000000000000002620001e2640100000000026401000000009004565b8260059080519060200190620001119291906200063f565b5081600690805190602001906200012a9291906200063f565b506200016863780e9d637c010000000000000000000000000000000000000000000000000000000002620001e2640100000000026401000000009004565b620001a5635b5e139f7c010000000000000000000000000000000000000000000000000000000002620001e2640100000000026401000000009004565b5b600c811015620001d957620001cb3382620002a0640100000000026401000000009004565b8080600101915050620001a6565b505050620006ee565b63ffffffff7c010000000000000000000000000000000000000000000000000000000002817bffffffffffffffffffffffffffffffffffffffffffffffffffffffff1916141515156200023457600080fd5b6001600080837bffffffffffffffffffffffffffffffffffffffffffffffffffffffff19167bffffffffffffffffffffffffffffffffffffffffffffffffffffffff1916815260200190815260200160002060006101000a81548160ff02191690831515021790555050565b620002c082826200030d6401000000000262001b68176401000000009004565b600980549050600a60008381526020019081526020016000208190555060098190806001815401808255809150509060018203906000526020600020016000909192909190915055505050565b600073ffffffffffffffffffffffffffffffffffffffff168273ffffffffffffffffffffffffffffffffffffffff16141515156200034a57600080fd5b620003658282620003c5640100000000026401000000009004565b808273ffffffffffffffffffffffffffffffffffffffff16600073ffffffffffffffffffffffffffffffffffffffff167fddf252ad1be2c89b69c2b068fc378daa952ba7f163c4a11628f55a4df523b3ef60405160405180910390a45050565b6000620003e78383620004b26401000000000262001989176401000000009004565b600760008473ffffffffffffffffffffffffffffffffffffffff1673ffffffffffffffffffffffffffffffffffffffff168152602001908152602001600020805490509050600760008473ffffffffffffffffffffffffffffffffffffffff1673ffffffffffffffffffffffffffffffffffffffff168152602001908152602001600020829080600181540180825580915050906001820390600052602060002001600090919290919091505550806008600084815260200190815260200160002081905550505050565b600073ffffffffffffffffffffffffffffffffffffffff166001600083815260200190815260200160002060009054906101000a900473ffffffffffffffffffffffffffffffffffffffff1673ffffffffffffffffffffffffffffffffffffffff161415156200052157600080fd5b816001600083815260200190815260200160002060006101000a81548173ffffffffffffffffffffffffffffffffffffffff021916908373ffffffffffffffffffffffffffffffffffffffff160217905550620005d66001600360008573ffffffffffffffffffffffffffffffffffffffff1673ffffffffffffffffffffffffffffffffffffffff168152602001908152602001600020546200061d6401000000000262001af6179091906401000000009004565b600360008473ffffffffffffffffffffffffffffffffffffffff1673ffffffffffffffffffffffffffffffffffffffff168152602001908152602001600020819055505050565b60008082840190508381101515156200063557600080fd5b8091505092915050565b828054600181600116156101000203166002900490600052602060002090601f016020900481019282601f106200068257805160ff1916838001178555620006b3565b82800160010185558215620006b3579182015b82811115620006b257825182559160200191906001019062000695565b5b509050620006c29190620006c6565b5090565b620006eb91905b80821115620006e7576000816000905550600101620006cd565b5090565b90565b611c3a80620006fe6000396000f3006080604052600436106100fc576000357c0100000000000000000000000000000000000000000000000000000000900463ffffffff16806301ffc9a71461010157806306fdde0314610165578063081812fc146101f5578063095ea7b31461026257806318160ddd146102af57806319fa8f50146102da57806323b872dd146103435780632f745c59146103b057806342842e0e146104115780634f558e791461047e5780634f6ccce7146104c35780636352211e1461050457806370a082311461057157806395d89b41146105c8578063a22cb46514610658578063b88d4fde146106a7578063c87b56dd1461075a578063e985e9c514610800575b600080fd5b34801561010d57600080fd5b5061014b60048036038101908080357bffffffffffffffffffffffffffffffffffffffffffffffffffffffff1916906020019092919050505061087b565b604051808215151515815260200191505060405180910390f35b34801561017157600080fd5b5061017a6108e2565b6040518080602001828103825283818151815260200191508051906020019080838360005b838110156101ba57808201518184015260208101905061019f565b50505050905090810190601f1680156101e75780820380516001836020036101000a031916815260200191505b509250505060405180910390f35b34801561020157600080fd5b5061022060048036038101908080359060200190929190505050610984565b604051808273ffffffffffffffffffffffffffffffffffffffff1673ffffffffffffffffffffffffffffffffffffffff16815260200191505060405180910390f35b34801561026e57600080fd5b506102ad600480360381019080803573ffffffffffffffffffffffffffffffffffffffff169060200190929190803590602001909291905050506109c1565b005b3480156102bb57600080fd5b506102c4610b06565b6040518082815260200191505060405180910390f35b3480156102e657600080fd5b506102ef610b13565b60405180827bffffffffffffffffffffffffffffffffffffffffffffffffffffffff19167bffffffffffffffffffffffffffffffffffffffffffffffffffffffff1916815260200191505060405180910390f35b34801561034f57600080fd5b506103ae600480360381019080803573ffffffffffffffffffffffffffffffffffffffff169060200190929190803573ffffffffffffffffffffffffffffffffffffffff16906020019092919080359060200190929190505050610b3a565b005b3480156103bc57600080fd5b506103fb600480360381019080803573ffffffffffffffffffffffffffffffffffffffff16906020019092919080359060200190929190505050610c45565b6040518082815260200191505060405180910390f35b34801561041d57600080fd5b5061047c600480360381019080803573ffffffffffffffffffffffffffffffffffffffff169060200190929190803573ffffffffffffffffffffffffffffffffffffffff16906020019092919080359060200190929190505050610cbc565b005b34801561048a57600080fd5b506104a960048036038101908080359060200190929190505050610cdd565b604051808215151515815260200191505060405180910390f35b3480156104cf57600080fd5b506104ee60048036038101908080359060200190929190505050610d4f565b6040518082815260200191505060405180910390f35b34801561051057600080fd5b5061052f60048036038101908080359060200190929190505050610d87565b604051808273ffffffffffffffffffffffffffffffffffffffff1673ffffffffffffffffffffffffffffffffffffffff16815260200191505060405180910390f35b34801561057d57600080fd5b506105b2600480360381019080803573ffffffffffffffffffffffffffffffffffffffff169060200190929190505050610e05565b6040518082815260200191505060405180910390f35b3480156105d457600080fd5b506105dd610e89565b6040518080602001828103825283818151815260200191508051906020019080838360005b8381101561061d578082015181840152602081019050610602565b50505050905090810190601f16801561064a5780820380516001836020036101000a031916815260200191505b509250505060405180910390f35b34801561066457600080fd5b506106a5600480360381019080803573ffffffffffffffffffffffffffffffffffffffff169060200190929190803515159060200190929190505050610f2b565b005b3480156106b357600080fd5b50610758600480360381019080803573ffffffffffffffffffffffffffffffffffffffff169060200190929190803573ffffffffffffffffffffffffffffffffffffffff16906020019092919080359060200190929190803590602001908201803590602001908080601f0160208091040260200160405190810160405280939291908181526020018383808284378201915050505050509192919290505050611067565b005b34801561076657600080fd5b506107856004803603810190808035906020019092919050505061108f565b6040518080602001828103825283818151815260200191508051906020019080838360005b838110156107c55780820151818401526020810190506107aa565b50505050905090810190601f1680156107f25780820380516001836020036101000a031916815260200191505b509250505060405180910390f35b34801561080c57600080fd5b50610861600480360381019080803573ffffffffffffffffffffffffffffffffffffffff169060200190929190803573ffffffffffffffffffffffffffffffffffffffff169060200190929190505050611158565b604051808215151515815260200191505060405180910390f35b6000806000837bffffffffffffffffffffffffffffffffffffffffffffffffffffffff19167bffffffffffffffffffffffffffffffffffffffffffffffffffffffff1916815260200190815260200160002060009054906101000a900460ff169050919050565b606060058054600181600116156101000203166002900480601f01602080910402602001604051908101604052809291908181526020018280546001816001161561010002031660029004801561097a5780601f1061094f5761010080835404028352916020019161097a565b820191906000526020600020905b81548152906001019060200180831161095d57829003601f168201915b5050505050905090565b60006002600083815260200190815260200160002060009054906101000a900473ffffffffffffffffffffffffffffffffffffffff169050919050565b60006109cc82610d87565b90508073ffffffffffffffffffffffffffffffffffffffff168373ffffffffffffffffffffffffffffffffffffffff1614151515610a0957600080fd5b8073ffffffffffffffffffffffffffffffffffffffff163373ffffffffffffffffffffffffffffffffffffffff161480610a495750610a488133611158565b5b1515610a5457600080fd5b826002600084815260200190815260200160002060006101000a81548173ffffffffffffffffffffffffffffffffffffffff021916908373ffffffffffffffffffffffffffffffffffffffff160217905550818373ffffffffffffffffffffffffffffffffffffffff168273ffffffffffffffffffffffffffffffffffffffff167f8c5be1e5ebec7d5bd14f71427d1e84f3dd0314c0f7b2291e5b200ac8c7c3b92560405160405180910390a4505050565b6000600980549050905090565b6301ffc9a77c01000000000000000000000000000000000000000000000000000000000281565b610b4433826111ec565b1515610b4f57600080fd5b600073ffffffffffffffffffffffffffffffffffffffff168373ffffffffffffffffffffffffffffffffffffffff1614151515610b8b57600080fd5b600073ffffffffffffffffffffffffffffffffffffffff168273ffffffffffffffffffffffffffffffffffffffff1614151515610bc757600080fd5b610bd18382611281565b610bdb8382611384565b610be58282611540565b808273ffffffffffffffffffffffffffffffffffffffff168473ffffffffffffffffffffffffffffffffffffffff167fddf252ad1be2c89b69c2b068fc378daa952ba7f163c4a11628f55a4df523b3ef60405160405180910390a4505050565b6000610c5083610e05565b82101515610c5d57600080fd5b600760008473ffffffffffffffffffffffffffffffffffffffff1673ffffffffffffffffffffffffffffffffffffffff16815260200190815260200160002082815481101515610ca957fe5b9060005260206000200154905092915050565b610cd88383836020604051908101604052806000815250611067565b505050565b6000806001600084815260200190815260200160002060009054906101000a900473ffffffffffffffffffffffffffffffffffffffff169050600073ffffffffffffffffffffffffffffffffffffffff168173ffffffffffffffffffffffffffffffffffffffff161415915050919050565b6000610d59610b06565b82101515610d6657600080fd5b600982815481101515610d7557fe5b90600052602060002001549050919050565b6000806001600084815260200190815260200160002060009054906101000a900473ffffffffffffffffffffffffffffffffffffffff169050600073ffffffffffffffffffffffffffffffffffffffff168173ffffffffffffffffffffffffffffffffffffffff1614151515610dfc57600080fd5b80915050919050565b60008073ffffffffffffffffffffffffffffffffffffffff168273ffffffffffffffffffffffffffffffffffffffff1614151515610e4257600080fd5b600360008373ffffffffffffffffffffffffffffffffffffffff1673ffffffffffffffffffffffffffffffffffffffff168152602001908152602001600020549050919050565b606060068054600181600116156101000203166002900480601f016020809104026020016040519081016040528092919081815260200182805460018160011615610100020316600290048015610f215780601f10610ef657610100808354040283529160200191610f21565b820191906000526020600020905b815481529060010190602001808311610f0457829003601f168201915b5050505050905090565b3373ffffffffffffffffffffffffffffffffffffffff168273ffffffffffffffffffffffffffffffffffffffff1614151515610f6657600080fd5b80600460003373ffffffffffffffffffffffffffffffffffffffff1673ffffffffffffffffffffffffffffffffffffffff16815260200190815260200160002060008473ffffffffffffffffffffffffffffffffffffffff1673ffffffffffffffffffffffffffffffffffffffff16815260200190815260200160002060006101000a81548160ff0219169083151502179055508173ffffffffffffffffffffffffffffffffffffffff163373ffffffffffffffffffffffffffffffffffffffff167f17307eab39ab6107e8899845ad3d59bd9653f200f220920489ca2b5937696c3183604051808215151515815260200191505060405180910390a35050565b611072848484610b3a565b61107e84848484611617565b151561108957600080fd5b50505050565b606061109a82610cdd565b15156110a557600080fd5b600b60008381526020019081526020016000208054600181600116156101000203166002900480601f01602080910402602001604051908101604052809291908181526020018280546001816001161561010002031660029004801561114c5780601f106111215761010080835404028352916020019161114c565b820191906000526020600020905b81548152906001019060200180831161112f57829003601f168201915b50505050509050919050565b6000600460008473ffffffffffffffffffffffffffffffffffffffff1673ffffffffffffffffffffffffffffffffffffffff16815260200190815260200160002060008373ffffffffffffffffffffffffffffffffffffffff1673ffffffffffffffffffffffffffffffffffffffff16815260200190815260200160002060009054906101000a900460ff16905092915050565b6000806111f883610d87565b90508073ffffffffffffffffffffffffffffffffffffffff168473ffffffffffffffffffffffffffffffffffffffff16148061126757508373ffffffffffffffffffffffffffffffffffffffff1661124f84610984565b73ffffffffffffffffffffffffffffffffffffffff16145b8061127857506112778185611158565b5b91505092915050565b8173ffffffffffffffffffffffffffffffffffffffff166112a182610d87565b73ffffffffffffffffffffffffffffffffffffffff161415156112c357600080fd5b600073ffffffffffffffffffffffffffffffffffffffff166002600083815260200190815260200160002060009054906101000a900473ffffffffffffffffffffffffffffffffffffffff1673ffffffffffffffffffffffffffffffffffffffff161415156113805760006002600083815260200190815260200160002060006101000a81548173ffffffffffffffffffffffffffffffffffffffff021916908373ffffffffffffffffffffffffffffffffffffffff1602179055505b5050565b60008060006113938585611839565b600860008581526020019081526020016000205492506113ff6001600760008873ffffffffffffffffffffffffffffffffffffffff1673ffffffffffffffffffffffffffffffffffffffff1681526020019081526020016000208054905061196890919063ffffffff16565b9150600760008673ffffffffffffffffffffffffffffffffffffffff1673ffffffffffffffffffffffffffffffffffffffff1681526020019081526020016000208281548110151561144d57fe5b9060005260206000200154905080600760008773ffffffffffffffffffffffffffffffffffffffff1673ffffffffffffffffffffffffffffffffffffffff168152602001908152602001600020848154811015156114a757fe5b9060005260206000200181905550600760008673ffffffffffffffffffffffffffffffffffffffff1673ffffffffffffffffffffffffffffffffffffffff1681526020019081526020016000208054809190600190036115079190611b17565b50600060086000868152602001908152602001600020819055508260086000838152602001908152602001600020819055505050505050565b600061154c8383611989565b600760008473ffffffffffffffffffffffffffffffffffffffff1673ffffffffffffffffffffffffffffffffffffffff168152602001908152602001600020805490509050600760008473ffffffffffffffffffffffffffffffffffffffff1673ffffffffffffffffffffffffffffffffffffffff168152602001908152602001600020829080600181540180825580915050906001820390600052602060002001600090919290919091505550806008600084815260200190815260200160002081905550505050565b6000806116398573ffffffffffffffffffffffffffffffffffffffff16611ae3565b15156116485760019150611830565b8473ffffffffffffffffffffffffffffffffffffffff1663150b7a02338887876040518563ffffffff167c0100000000000000000000000000000000000000000000000000000000028152600401808573ffffffffffffffffffffffffffffffffffffffff1673ffffffffffffffffffffffffffffffffffffffff1681526020018473ffffffffffffffffffffffffffffffffffffffff1673ffffffffffffffffffffffffffffffffffffffff16815260200183815260200180602001828103825283818151815260200191508051906020019080838360005b8381101561173d578082015181840152602081019050611722565b50505050905090810190601f16801561176a5780820380516001836020036101000a031916815260200191505b5095505050505050602060405180830381600087803b15801561178c57600080fd5b505af11580156117a0573d6000803e3d6000fd5b505050506040513d60208110156117b657600080fd5b8101908080519060200190929190505050905063150b7a027c0100000000000000000000000000000000000000000000000000000000027bffffffffffffffffffffffffffffffffffffffffffffffffffffffff1916817bffffffffffffffffffffffffffffffffffffffffffffffffffffffff19161491505b50949350505050565b8173ffffffffffffffffffffffffffffffffffffffff1661185982610d87565b73ffffffffffffffffffffffffffffffffffffffff1614151561187b57600080fd5b6118ce6001600360008573ffffffffffffffffffffffffffffffffffffffff1673ffffffffffffffffffffffffffffffffffffffff1681526020019081526020016000205461196890919063ffffffff16565b600360008473ffffffffffffffffffffffffffffffffffffffff1673ffffffffffffffffffffffffffffffffffffffff1681526020019081526020016000208190555060006001600083815260200190815260200160002060006101000a81548173ffffffffffffffffffffffffffffffffffffffff021916908373ffffffffffffffffffffffffffffffffffffffff1602179055505050565b60008083831115151561197a57600080fd5b82840390508091505092915050565b600073ffffffffffffffffffffffffffffffffffffffff166001600083815260200190815260200160002060009054906101000a900473ffffffffffffffffffffffffffffffffffffffff1673ffffffffffffffffffffffffffffffffffffffff161415156119f757600080fd5b816001600083815260200190815260200160002060006101000a81548173ffffffffffffffffffffffffffffffffffffffff021916908373ffffffffffffffffffffffffffffffffffffffff160217905550611a9c6001600360008573ffffffffffffffffffffffffffffffffffffffff1673ffffffffffffffffffffffffffffffffffffffff16815260200190815260200160002054611af690919063ffffffff16565b600360008473ffffffffffffffffffffffffffffffffffffffff1673ffffffffffffffffffffffffffffffffffffffff168152602001908152602001600020819055505050565b600080823b905060008111915050919050565b6000808284019050838110151515611b0d57600080fd5b8091505092915050565b815481835581811115611b3e57818360005260206000209182019101611b3d9190611b43565b5b505050565b611b6591905b80821115611b61576000816000905550600101611b49565b5090565b90565b600073ffffffffffffffffffffffffffffffffffffffff168273ffffffffffffffffffffffffffffffffffffffff1614151515611ba457600080fd5b611bae8282611540565b808273ffffffffffffffffffffffffffffffffffffffff16600073ffffffffffffffffffffffffffffffffffffffff167fddf252ad1be2c89b69c2b068fc378daa952ba7f163c4a11628f55a4df523b3ef60405160405180910390a450505600a165627a7a72305820d881b77007328d4ce2f50c3343b1a30dcb8b7a75948a65757c4e9abff60f6b3c0029",
  "source": "pragma solidity ^0.4.24;\r\n\r\nimport \"./ERC721.sol\";\r\nimport \"./ERC721BasicToken.sol\";\r\nimport \"./introspection/SupportsInterfaceWithLookup.sol\";\r\n\r\n\r\ncontract ERC721Token is SupportsInterfaceWithLookup, ERC721BasicToken, ERC721 {\r\n\r\n  // Token name\r\n  string internal name_;\r\n\r\n  // Token symbol\r\n  string internal symbol_;\r\n\r\n  // Mapping from owner to list of owned token IDs\r\n  mapping(address => uint256[]) internal ownedTokens;\r\n\r\n  // Mapping from token ID to index of the owner tokens list\r\n  mapping(uint256 => uint256) internal ownedTokensIndex;\r\n\r\n  // Array with all token ids, used for enumeration\r\n  uint256[] internal allTokens;\r\n\r\n  // Mapping from token id to position in the allTokens array\r\n  mapping(uint256 => uint256) internal allTokensIndex;\r\n\r\n  // Optional mapping for token URIs\r\n  mapping(uint256 => string) internal tokenURIs;\r\n\r\n  /**\r\n   * @dev Constructor function\r\n   */\r\n  constructor(string _name, string _symbol) public {\r\n    name_ = _name;\r\n    symbol_ = _symbol;\r\n\r\n    // register the supported interfaces to conform to ERC721 via ERC165\r\n    _registerInterface(InterfaceId_ERC721Enumerable);\r\n    _registerInterface(InterfaceId_ERC721Metadata);\r\n\r\n    for (uint256 i; i < 12; i++) {\r\n      _mint(msg.sender, i);\r\n    }\r\n\r\n  }\r\n\r\n  /**\r\n   * @dev Gets the token name\r\n   * @return string representing the token name\r\n   */\r\n  function name() external view returns (string) {\r\n    return name_;\r\n  }\r\n\r\n  /**\r\n   * @dev Gets the token symbol\r\n   * @return string representing the token symbol\r\n   */\r\n  function symbol() external view returns (string) {\r\n    return symbol_;\r\n  }\r\n\r\n  /**\r\n   * @dev Returns an URI for a given token ID\r\n   * Throws if the token ID does not exist. May return an empty string.\r\n   * @param _tokenId uint256 ID of the token to query\r\n   */\r\n  function tokenURI(uint256 _tokenId) public view returns (string) {\r\n    require(exists(_tokenId));\r\n    return tokenURIs[_tokenId];\r\n  }\r\n\r\n  /**\r\n   * @dev Gets the token ID at a given index of the tokens list of the requested owner\r\n   * @param _owner address owning the tokens list to be accessed\r\n   * @param _index uint256 representing the index to be accessed of the requested tokens list\r\n   * @return uint256 token ID at the given index of the tokens list owned by the requested address\r\n   */\r\n  function tokenOfOwnerByIndex(\r\n    address _owner,\r\n    uint256 _index\r\n  )\r\n    public\r\n    view\r\n    returns (uint256)\r\n  {\r\n    require(_index < balanceOf(_owner));\r\n    return ownedTokens[_owner][_index];\r\n  }\r\n\r\n  /**\r\n   * @dev Gets the total amount of tokens stored by the contract\r\n   * @return uint256 representing the total amount of tokens\r\n   */\r\n  function totalSupply() public view returns (uint256) {\r\n    return allTokens.length;\r\n  }\r\n\r\n  /**\r\n   * @dev Gets the token ID at a given index of all the tokens in this contract\r\n   * Reverts if the index is greater or equal to the total number of tokens\r\n   * @param _index uint256 representing the index to be accessed of the tokens list\r\n   * @return uint256 token ID at the given index of the tokens list\r\n   */\r\n  function tokenByIndex(uint256 _index) public view returns (uint256) {\r\n    require(_index < totalSupply());\r\n    return allTokens[_index];\r\n  }\r\n\r\n  /**\r\n   * @dev Internal function to set the token URI for a given token\r\n   * Reverts if the token ID does not exist\r\n   * @param _tokenId uint256 ID of the token to set its URI\r\n   * @param _uri string URI to assign\r\n   */\r\n  function _setTokenURI(uint256 _tokenId, string _uri) internal {\r\n    require(exists(_tokenId));\r\n    tokenURIs[_tokenId] = _uri;\r\n  }\r\n\r\n  /**\r\n   * @dev Internal function to add a token ID to the list of a given address\r\n   * @param _to address representing the new owner of the given token ID\r\n   * @param _tokenId uint256 ID of the token to be added to the tokens list of the given address\r\n   */\r\n  function addTokenTo(address _to, uint256 _tokenId) internal {\r\n    super.addTokenTo(_to, _tokenId);\r\n    uint256 length = ownedTokens[_to].length;\r\n    ownedTokens[_to].push(_tokenId);\r\n    ownedTokensIndex[_tokenId] = length;\r\n  }\r\n\r\n  /**\r\n   * @dev Internal function to remove a token ID from the list of a given address\r\n   * @param _from address representing the previous owner of the given token ID\r\n   * @param _tokenId uint256 ID of the token to be removed from the tokens list of the given address\r\n   */\r\n  function removeTokenFrom(address _from, uint256 _tokenId) internal {\r\n    super.removeTokenFrom(_from, _tokenId);\r\n\r\n    // To prevent a gap in the array, we store the last token in the index of the token to delete, and\r\n    // then delete the last slot.\r\n    uint256 tokenIndex = ownedTokensIndex[_tokenId];\r\n    uint256 lastTokenIndex = ownedTokens[_from].length.sub(1);\r\n    uint256 lastToken = ownedTokens[_from][lastTokenIndex];\r\n\r\n    ownedTokens[_from][tokenIndex] = lastToken;\r\n    // This also deletes the contents at the last position of the array\r\n    ownedTokens[_from].length--;\r\n\r\n    // Note that this will handle single-element arrays. In that case, both tokenIndex and lastTokenIndex are going to\r\n    // be zero. Then we can make sure that we will remove _tokenId from the ownedTokens list since we are first swapping\r\n    // the lastToken to the first position, and then dropping the element placed in the last position of the list\r\n\r\n    ownedTokensIndex[_tokenId] = 0;\r\n    ownedTokensIndex[lastToken] = tokenIndex;\r\n  }\r\n\r\n  /**\r\n   * @dev Internal function to mint a new token\r\n   * Reverts if the given token ID already exists\r\n   * @param _to address the beneficiary that will own the minted token\r\n   * @param _tokenId uint256 ID of the token to be minted by the msg.sender\r\n   */\r\n  function _mint(address _to, uint256 _tokenId) internal {\r\n    super._mint(_to, _tokenId);\r\n\r\n    allTokensIndex[_tokenId] = allTokens.length;\r\n    allTokens.push(_tokenId);\r\n  }\r\n\r\n  /**\r\n   * @dev Internal function to burn a specific token\r\n   * Reverts if the token does not exist\r\n   * @param _owner owner of the token to burn\r\n   * @param _tokenId uint256 ID of the token being burned by the msg.sender\r\n   */\r\n  function _burn(address _owner, uint256 _tokenId) internal {\r\n    super._burn(_owner, _tokenId);\r\n\r\n    // Clear metadata (if any)\r\n    if (bytes(tokenURIs[_tokenId]).length != 0) {\r\n      delete tokenURIs[_tokenId];\r\n    }\r\n\r\n    // Reorg all tokens array\r\n    uint256 tokenIndex = allTokensIndex[_tokenId];\r\n    uint256 lastTokenIndex = allTokens.length.sub(1);\r\n    uint256 lastToken = allTokens[lastTokenIndex];\r\n\r\n    allTokens[tokenIndex] = lastToken;\r\n    allTokens[lastTokenIndex] = 0;\r\n\r\n    allTokens.length--;\r\n    allTokensIndex[_tokenId] = 0;\r\n    allTokensIndex[lastToken] = tokenIndex;\r\n  }\r\n\r\n}\r\n",
  "sourcePath": "C:\\Users\\Ahmad Mustafa\\Desktop\\land-chain\\contracts\\ERC721Token.sol",
  "compiler": {
    "name": "solc",
    "version": "0.4.24+commit.e67f0147.Emscripten.clang"
  },
  "schemaVersion": "2.0.1",
  "updatedAt": "2018-08-25T09:53:18.095Z"
}